:100000004BC008C52EC56DC06CC06BC06AC069C04E
:1000100068C04EC566C0E4C715C863C062C061C091
:1000200060C05FC05EC034003300320031000000A9
:1000300000000000000000040507000000000000B0
:1000400000000000000102040810204080010204AA
:100050000810200102040810204080400404040419
:100060000404040402020202020203030303030362
:1000700002020300000000360033003000000000E0
:100080000038003500320000000000370034003135
:1000900000000B025008260211241FBECFE5D4E059
:1000A000DEBFCDBF10E0A0E6B0E0EEEDF9E102C0AA
:1000B00005900D92AE38B107D9F721E0AEE8B0E077
:1000C00001C01D92A03BB207E1F710E0CBE4D0E005
:1000D00003C02197FE0110DAC934D107D1F79CD9AA
:1000E00072CC8ECF0F931F93809192008232D8F5FD
:1000F00035D5AB01BC018091970090919800A091FB
:100100009900B0919A008A019B01081B190B2A0BD8
:100110003B0BD901C801409397005093980060931E
:10012000990070939A00009711E0A107B10528F497
:100130009C012C3580E7380740F0109292008091A6
:1001400092008F5F809392000EC08091920088236E
:1001500051F0809192008130A1F52037AAE13A0751
:1001600028F4109292001F910F9108952837304380
:1001700030F78091930090919400A0919500B091F8
:1001800096008A019B01081B190B2A0B3B0BD90116
:10019000C8018E3C9D47A240B10518F78FEF8093B0
:1001A0008E0080938F001092900081E280939200E5
:1001B0004093930050939400609395007093960041
:1001C000BECFE0919200E250E695E695E695F0E02C
:1001D000E257FF4F808190E0959587952C39364006
:1001E00070F4808380919200813208F4A8CF8091CE
:1001F00091008095909190009817D1F2B2CF8068CD
:10020000F0CF80919D0090919E0004D561E08CE03C
:1002100077D582E390E0FED460E08CE071C561E0C8
:100220008DE032D561E088E02FD561E08CE02CD5FF
:1002300061E08AE029D562E08EE026D562E082E0C6
:1002400023D561E08AE05CD526E040E052EC61E035
:1002500070E08FE091E069D640E052EC61E070E040
:1002600083EA90E051D360E08AE04AD562E083E01F
:100270000BD542E050E062E770E081E0ACD341E0B2
:1002800050E061E071E080E0A6C3609167008DE01E
:1002900037D56091660088E033C561E08AE030D5EB
:1002A00062E370E080E090E07FD460E08AE028C5FF
:1002B000F4DF62E370E080E090E076D4EECFCF939D
:1002C000DF9380919200823208F4A2C064E670E06D
:1002D00080E090E069D4DFB7F89480919200C0E0AC
:1002E000823268F03BD460939700709398008093BB
:1002F000990090939A00C091900010929200DFBFF5
:100300008091A2008C1309C08091670091E0892739
:1003100080936700DF91CF91C0CF8091A1008C13B3
:1003200007C08091660091E0892780936600F2CF34
:100330008091A0008C130AC080919D0090919E0036
:10034000C29690939E0080939D00E4CF80919F0081
:100350008C1306C080919D0090919E00C297F1CFB2
:100360008EE0FBD4892B09F053C080919B009091C3
:100370009C00892B81F4C093A2006C2F81E090E057
:10038000DEDA96DF80919B0090919C00019690931D
:100390009C0080939B0080919B0090919C00019712
:1003A00081F4C093A1006C2F82E090E0C8DA80DF76
:1003B00080919B0090919C00019690939C0080936B
:1003C0009B0080919B0090919C00029781F4C093C8
:1003D000A0006C2F83E090E0B2DA6ADF80919B008E
:1003E00090919C00019690939C0080939B0080913B
:1003F0009B0090919C00039759F4C0939F006C2F31
:1004000084E090E09CDA54DF10929C0010929B00F4
:10041000DF91CF91089520E046E065E083EA90E027
:100420004AD281E090E083DA8093A20082E090E0FB
:100430007EDA8093A10083E090E079DA8093A000D7
:1004400084E090E074DA80939F00089583EA90E05E
:10045000DCC10F931F93CF93DF93CDB7DEB72C97FB
:100460000FB6F894DEBF0FBECDBF83EA90E078D11F
:10047000892B09F478C06AE070E080E090E094D3C2
:100480004DE063EA70E0CE0107968ED66CE270E034
:10049000CE0101965ED7BE016F5F7F4FCE010796FA
:1004A000B7D78C01CE010196A3D60F3F1F4F39F06D
:1004B0008091670091E0892780936700EEDE6AE211
:1004C00070E0CE01019645D7BE016F5F7F4FCE0130
:1004D00007969ED78C01CE0101968AD60F3F1F4FFB
:1004E00039F08091660091E0892780936600D5DE1F
:1004F00068E270E0CE0101962CD7BE016F5F7F4F9E
:10050000CE01079685D78C01CE01019671D60F3F9B
:100510001F4F51F080919D0090919E00C296909344
:100520009E0080939D00B9DE66E270E0CE010196E8
:1005300010D7BE016F5F7F4FCE01079669D78C0140
:10054000CE01019655D60F3F1F4F51F080919D006F
:1005500090919E00C29790939E0080939D009DDE97
:10056000CE01079645D62C960FB6F894DEBF0FBE87
:10057000CDBFDF91CF911F910F9108956ADF9FDE6C
:1005800084CEE0910401F0910501309709F44DC04B
:10059000A685B7858585968D91FF04C09C9189239A
:1005A00029F408959C91892309F03FC0A389B48957
:1005B0009C918589809589238C9386899789019759
:1005C000F1F7608D718DA685B785558538E020E0FF
:1005D000CB010197F1F7822F90E095958795282F11
:1005E0004C91452309F02068315091F7868D81FDAB
:1005F00020958091C30090E001968F7399273091E8
:10060000C200381799F0A091C300B0E0AC53BF4FBF
:100610002C938093C300828D938D0197F1F7A3896A
:10062000B4898C919589892B8C930895868D8160EE
:10063000868FF1CF209104013091050128173907E9
:10064000B9F49091C2008091C300981789F0E091AD
:10065000C200F0E0EC53FF4F80812091C20030E0F7
:100660002F5F3F4F2F7333272093C20090E00895F0
:100670008FEF9FEF0895EF92FF920F931F93CF9309
:10068000DF93DC015C96ED90FC905D97E114F10442
:1006900079F481E090E013969C938E93129790E00A
:1006A00080E0DF91CF911F910F91FF90EF9008951F
:1006B0005196ED91FC91529750968C915097982FAE
:1006C00090950FB75E962C915E97122F127021FDB8
:1006D0006095F8942081112319F1282B2083E701DC
:1006E0002197F1F728E0462F50E0308160FF1AC0D3
:1006F000382B3083E7012197F1F7BA01759567959B
:10070000215089F7112381F08081892380830FBFD5
:100710005C968D919C910197F1F781E090E0C1CFBB
:100720002923DCCF3923E5CF9081892BEFCF0895A2
:1007300020910401309105012817390771F4909137
:10074000C2008091C300981741F0E091C200F0E030
:10075000EC53FF4F808190E008958FEF9FEF089555
:1007600020910401309105012817390769F480911F
:10077000C3002091C20090E0805C9F4F821B9109D2
:1007800060E470E054D6089590E080E00895E09130
:100790000401F0910501E817F90769F4A389B48908
:1007A0009C918589809589238C93109205011092E4
:1007B000040181E0089580E00895CF93DF93EC0178
:1007C0008A8D9B8D892BF9F0809104019091050110
:1007D0008C179D07C1F0009709F0D9DF8E8D8E7FB1
:1007E0008E8F1092C3001092C200D0930501C09367
:1007F0000401EB89FC8980819D89892B808381E0BC
:10080000DF91CF91089580E0FBCF20E730E0FC013D
:1008100031832083BCCF1F93CF93DF93EC01162F3E
:100820006E8D6695617081E06827812F69D261E0E5
:10083000812F2AD2812F110F990BFC01EB5BFF4F07
:10084000E491E88BFC01E45AFF4FE491F0E0EE0FF5
:10085000FF1FE358FF4F859194919A8B898BDF910D
:10086000CF911F9108951F93CF93DF93EC01162F23
:1008700060E0812F09D28E8D81FD03C061E0812F60
:100880003FD21C87812F110F990BFC01EB5BFF4FAF
:10089000E491ED87FC01E45AFF4FE491F0E0EE0FA4
:1008A000FF1FED58FF4F859194919F878E87DF91B1
:1008B000CF911F9108951F93CF93DF93EC01162FD3
:1008C0001B821A8288EE93E0A0E0B0E08C839D83C7
:1008D000AE83BF8380E790E0998388831F8A1E8A56
:1008E000198E188E1B8E1A8E1D8E1C8E8E8D8E7FED
:1008F00020FB81F98E8F642FCE018DDF612FCE0119
:10090000DF91CF911F91AFCFCF92DF92EF92FF9205
:100910000F931F93CF93DF93EC019A01AB011B8ED2
:100920001A8E198E188E1F8A1E8A60E874E88EE16E
:1009300090E0B2D569018901C901039724303105DE
:1009400010F481E090E09D8F8C8F8C858230C1F116
:100950008330C1F18FEF41E050E061EC72E03BD0B9
:10096000C601969587958431910570F143979F8BC9
:100970008E8BC60105970630110510F481E090E0DA
:10098000998F888F9601220F331F2C0D3D1D3695B0
:100990002795369527952D303105C8F02C50310913
:1009A0003B8F2A8F8C8D9D8D0197F1F7CE01DF91C2
:1009B000CF911F910F91FF90EF90DF90CF90FDCEE0
:1009C00080E0C9CF81E0C7CF81E090E0D0CF21E0C7
:1009D00030E0E6CF0895823088F4E82FF0E0EE0FA3
:1009E000FF1FE859FF4F71836083813041F085B765
:1009F0008C7F482B45BF8BB780648BBF089585B72C
:100A0000837F440F551F440F551F482B45BF8BB79D
:100A10008068F3CF1F920F920FB60F9211242F937D
:100A20003F934F935F936F937F938F939F93AF9376
:100A3000BF93EF93FF93E0916800F09169000995EF
:100A4000FF91EF91BF91AF919F918F917F916F91A6
:100A50005F914F913F912F910F900FBE0F901F907C
:100A600018951F920F920FB60F9211242F933F9358
:100A70004F935F936F937F938F939F93AF93BF93A6
:100A8000EF93FF93E0916A00F0916B000995FF915D
:100A9000EF91BF91AF919F918F917F916F915F91F6
:100AA0004F913F912F910F900FBE0F901F9018956F
:100AB0001F920F920FB60F9211242F933F938F9393
:100AC0009F93AF93BF938091070190910801A091EC
:100AD0000901B0910A013091060126E0230F2D375C
:100AE00058F50296A11DB11D2093060180930701C0
:100AF00090930801A0930901B0930A0180910B0122
:100B000090910C01A0910D01B0910E010196A11DD3
:100B1000B11D80930B0190930C01A0930D01B09334
:100B20000E01BF91AF919F918F913F912F910F90A7
:100B30000FBE0F901F90189529E8230F0396A11D53
:100B4000B11DD2CF2FB7F8946091070170910801C1
:100B50008091090190910A012FBF08953FB7F89441
:100B600080910B0190910C01A0910D01B0910E01AB
:100B700022B708B600FE05C02F3F19F00196A11D4F
:100B8000B11D3FBFBA2FA92F982F8827BC01CD01D7
:100B9000620F711D811D911D43E0660F771F881F35
:100BA000991F4A95D1F708958F929F92AF92BF9265
:100BB000CF92DF92EF92FF926B017C01CFDF4B016E
:100BC0005C01C114D104E104F104D9F02FD4C6DFD3
:100BD000681979098A099B09683E73408105910566
:100BE00080F321E0C21AD108E108F10888EE880EEE
:100BF00083E0981EA11CB11CC114D104E104F104CE
:100C000031F7FF90EF90DF90CF90BF90AF909F9023
:100C10008F9008958330910528F0880F991F0497CD
:100C20000197F1F70895789483B7826083BF83B703
:100C3000816083BF89B7816089BF1EBC8EB5826029
:100C40008EBD8EB581608EBD8FB581608FBD85B53F
:100C5000846085BD85B5806485BD329A319A3098AF
:100C6000379A1AB80895853041F0873049F08430BA
:100C700051F48FB58F778FBD08958FB58F7DFBCFE2
:100C800085B58F7D85BD0895CF93DF9390E0FC01FE
:100C9000EB5BFF4F2491845A9F4FFC018491882382
:100CA000C9F090E0880F991FFC01E957FF4FA5910B
:100CB000B491FC01E358FF4FC591D49161110DC06F
:100CC0009FB7F8948C91209582238C938881282358
:100CD00028839FBFDF91CF910895623051F49FB771
:100CE000F8943C91822F809583238C93E8812E2B5E
:100CF000EFCF8FB7F894EC912E2B2C938FBFEACFC8
:100D00001F93CF93DF93282F30E0F901E25DFF4F6F
:100D10008491F901EB5BFF4FD491F901E45AFF4F45
:100D2000C491CC23A1F0162F81119DDFEC2FF0E0B0
:100D3000EE0FFF1FE358FF4FA591B4918FB7F894C2
:100D4000EC91111108C0D095DE23DC938FBFDF91A9
:100D5000CF911F910895DE2BF8CFCF93DF93282FEB
:100D600030E0F901E25DFF4F8491F901EB5BFF4F49
:100D7000D491F901E45AFF4FC491CC2399F0811129
:100D800072DFEC2FF0E0EE0FFF1FED58FF4FA59143
:100D9000B491EC91ED2381E090E009F480E0DF91E3
:100DA000CF91089580E090E0FACFFC01918D228DE3
:100DB000892F90E0805C9F4F821B91098F73992748
:100DC0000895FC01918D828D981731F0828DE80F86
:100DD000F11D858D90E008958FEF9FEF0895FC0140
:100DE000918D828D981761F0A28DAE0FBF2FB11D2E
:100DF0005D968C91928D9F5F9F73928F90E0089586
:100E00008FEF9FEF089587E498E0892B39F080E019
:100E100090E0892B19F03BD18111F2C80895FC01B3
:100E2000A48DA80FB92FB11DA35ABF4F2C91848D4B
:100E300090E001968F739927848FA689B7892C93A8
:100E4000A089B1898C9180648C93938D848D981343
:100E500006C00288F389E02D80818F7D808308950C
:100E6000CF93DF93EC01888D8823B1F0AA89BB89E9
:100E7000E889F9898C9185FD03C0808186FD0CC0CD
:100E80000FB607FCF7CF8C9185FFF2CF808185FFED
:100E9000EDCFCE01C4DFEACFDF91CF910895EF927D
:100EA000FF920F931F93CF93DF93EC0181E0888F24
:100EB0009B8D8C8D981316C0E889F989808185FFF8
:100EC00011C0EE89FF896083E889F9898081806497
:100ED000808381E090E0DF91CF911F910F91FF908F
:100EE000EF900895F62E0B8D10E00F5F1F4F0F73DC
:100EF0001127E02E8C8D8E110BC00FB607FCFACF98
:100F0000E889F989808185FFF5CFCE0188DFF2CFAE
:100F1000EB8DEC0FFD2FF11DE35AFF4FF0820B8F8D
:100F2000EA89FB8980818062D3CFCF92DF92EF92F2
:100F3000FF921F93CF93DF93EC016A017B01122F85
:100F400060E874E88EE190E0A701960183D2215019
:100F50003109410951095695479537952795E889F3
:100F6000F98982E08083211580E1380790F0E889D3
:100F7000F989108260E472E48FE090E0A7019601A5
:100F800069D2215031094109510956954795379544
:100F90002795EC85FD853083EE85FF852083188EAF
:100FA0001068EC89FD891083EA89FB898081806162
:100FB0008083EA89FB89808188608083EA89FB8954
:100FC000808180688083EA89FB8980818F7D80832E
:100FD000DF91CF911F91FF90EF90DF90CF90089518
:100FE0001F920F920FB60F9211242F938F939F93FE
:100FF000EF93FF93E0911F01F09120018081E09138
:101000002501F091260182FD1BC09081809128016D
:101010008F5F8F7320912901821741F0E0912801A1
:10102000F0E0E15FFE4F958F80932801FF91EF91F3
:101030009F918F912F910F900FBE0F901F90189539
:101040008081F4CF1F920F920FB60F9211242F932D
:101050003F934F935F936F937F938F939F93AF9340
:10106000BF93EF93FF938FE091E0D9DEFF91EF9173
:10107000BF91AF919F918F917F916F915F914F91B0
:101080003F912F910F900FBE0F901F9018958FE0FA
:1010900091E08BDE21E0892B09F420E0822F089576
:1010A000EFE0F1E01382128288EE93E0A0E0B0E07E
:1010B00084839583A683B78380E890E091838083BF
:1010C00080E490E09587848729E230E0378726879F
:1010D0002BE230E0318B208B2AE230E0338B228B05
:1010E000958B848B8CE290E0978B868B118E128E81
:1010F000138E148E0895AF92BF92CF92DF92EF922B
:10110000FF920F931F93CF93DF936C017B018B01B1
:10111000040F151FEB015E01AE18BF08C017D10701
:1011200059F06991D601ED91FC910190F081E02D8B
:10113000C6010995892B79F7C501DF91CF911F91E0
:101140000F91FF90EF90DF90CF90BF90AF900895F8
:101150000F931F93CF93DF93EC01F4DC68877987BB
:101160008A879B87E881F9810680F781E02DCE018F
:10117000099597FF14C0E6DC088519852A853B850B
:10118000601B710B820B930B0C811D812E813F81A3
:10119000601771078207930728F38FEF9FEFDF91A6
:1011A000CF911F910F910895EF92FF920F931F938C
:1011B000CF93DF93EC017B01042F6CE870E080D0CB
:1011C000C701C6DF002E000C110B97FD09C00817E0
:1011D000190731F0682FCE01EED0C701B9DFF5CF86
:1011E000CE01DF91CF911F910F91FF90EF90089565
:1011F000FC018081918122C2CF93DF93EC01888131
:101200009981009709F01AD2198218821D821C82D6
:101210001B821A82DF91CF9108950F931F93CF9372
:10122000DF93EC018B016F5F7F4F888199818FD2B3
:10123000009751F0998388831B830A8381E0DF91B3
:10124000CF911F910F91089580E0F9CFCF93DF9355
:10125000EC0188819981892B49F08A819B818617CD
:10126000970720F081E0DF91CF910895CE01D5DF7F
:101270008823C9F38C819D81892BA1F7E881F981AD
:101280001082F0CFEF92FF920F931F93CF93DF93D3
:10129000EC017B018A01BA01D9DF81110AC0CE01BC
:1012A000ABDFCE01DF91CF911F910F91FF90EF90B7
:1012B00008951D830C83B7018881998117D3F1CFDD
:1012C000FC01118210821382128215821482611530
:1012D000710549F0FB0101900020E9F73197AF015A
:1012E000461B570BCFCF0895EF92FF920F931F939A
:1012F000CF93DF93EC017B018A01BA01A7DF811153
:101300000AC0CE0179DFCE01DF91CF911F910F91FD
:10131000FF90EF9008951D830C83B7018881998118
:10132000CCD2F1CF0F931F93CF93DF93EC018B01BE
:101330006115710561F0CB01C7D2AC01B801CE01D6
:10134000D3DFCE01DF91CF911F910F91089554DF2C
:10135000F8CFFC011182108213821282158214824E
:10136000E1CFEF92FF920F931F93CF93DF9361151D
:10137000710541F480E0DF91CF911F910F91FF90B3
:10138000EF90089541155105A1F07B01EC010C810E
:101390001D81040F151FB80159DF882359F32881D7
:1013A00039818C819D81B701820F931F9FD21D834C
:1013B0000C8381E0E0CFCF93DF9300D0CDB7DEB7D1
:1013C00069831A8241E050E0BE016F5F7F4FC9DF41
:1013D0000F900F90DF91CF910895CF93DF93FC0191
:1013E000248135814217530780F4C081D181FB01EC
:1013F00060817181CE01840F951F7FD2009729F003
:101400008C1B9D0BDF91CF9108958FEF9FEFFACF4B
:1014100050E040E0E2CF089506DCFDDF00D7C3E0F6
:10142000D7E0ACD82097E9F3EEDCFBCF089597FB2B
:10143000072E16F4009406D077FD08D049D007FC9B
:1014400005D03EF4909581959F4F089570956195D4
:101450007F4F0895A1E21A2EAA1BBB1BFD010DC0F0
:10146000AA1FBB1FEE1FFF1FA217B307E407F50754
:1014700020F0A21BB30BE40BF50B661F771F881F30
:10148000991F1A9469F760957095809590959B01C6
:10149000AC01BD01CF010895052E97FB16F4009411
:1014A0000FD057FD05D0D6DF07FC02D046F408C0A8
:1014B00050954095309521953F4F4F4F5F4F089580
:1014C00090958095709561957F4F8F4F9F4F0895B0
:1014D000AA1BBB1B51E107C0AA1FBB1FA617B7075A
:1014E00010F0A61BB70B881F991F5A95A9F7809576
:1014F0009095BC01CD010895EE0FFF1F0590F4916A
:10150000E02D09940F931F93CF93DF9382309105C1
:1015100010F482E090E0E091AE01F091AF0130E094
:1015200020E0B0E0A0E0309799F42115310509F4EE
:101530004AC0281B390B24303105D8F58A819B819C
:101540006115710589F1FB0193838283FE0111C04E
:10155000408151810281138148175907E0F04817F3
:10156000590799F4109761F012960C9312971396FD
:101570001C933296CF01DF91CF911F910F91089567
:101580000093AE011093AF01F4CF2115310551F056
:101590004217530738F0A901DB019A01BD01DF01B1
:1015A000F801C1CFEF01F9CF9093AF018093AE0165
:1015B000CDCFFE01E20FF31F8193919322503109A9
:1015C00039832883D7CF2091AC013091AD01232BF3
:1015D00041F420916200309163003093AD0120937B
:1015E000AC0120916000309161002115310541F47A
:1015F0002DB73EB74091640050916500241B350B18
:10160000E091AC01F091AD01E217F307A0F42E1BBD
:101610003F0B2817390778F0AC014E5F5F4F241756
:10162000350748F04E0F5F1F5093AD014093AC015A
:10163000819391939FCFF0E0E0E09CCFCF93DF9335
:101640000097E9F0FC01329713821282A091AE015B
:10165000B091AF01ED0130E020E01097A1F42081BE
:101660003181820F931F2091AC013091AD01281779
:10167000390709F061C0F093AD01E093AC01DF914F
:10168000CF910895EA01CE17DF07E8F54A815B8123
:101690009E0141155105B1F7E901FB83EA834991A8
:1016A0005991C40FD51FEC17FD0761F4808191811A
:1016B0000296840F951FE901998388838281938123
:1016C0009B838A83F0E0E0E012968D919C911397C2
:1016D0000097B9F52D913C911197CD010296820F9B
:1016E000931F2091AC013091AD012817390739F6CD
:1016F000309751F51092AF011092AE01B093AD0149
:10170000A093AC01BCCFD383C28340815181840FAD
:10171000951FC817D90761F44E5F5F4F8881998183
:10172000480F591F518340838A819B819383828311
:101730002115310509F0B0CFF093AF01E093AE0170
:101740009ECFFD01DC01C0CF13821282D7CFB0E063
:10175000A0E0ECEAFBE002C18C01009741F4CB0170
:10176000D1DE8C01C801CDB7DEB7E0E113C1FC01C9
:10177000E60FF71F9C0122503109E217F30708F426
:1017800099C0D901CD91DC911197C617D70790F078
:10179000C530D10538F3CE0104978617970710F3AB
:1017A000C61BD70B2297C193D1936D937C93CF0126
:1017B00045DFD8CF5B01AC1ABD0A4C018C0E9D1ED3
:1017C000A091AE01B091AF01512C412CF12CE12C34
:1017D000109731F58091AC019091AD018815990574
:1017E00009F05CC04616570608F058C080916000AA
:1017F00090916100009741F48DB79EB740916400CD
:1018000050916500841B950BE817F90708F052C04A
:10181000F093AD01E093AC01F90171836083A2CF35
:101820008D919C91119712966C90129713967C90C3
:101830001397A815B90559F56C0142E0C40ED11CE7
:10184000CA14DB0420F1AC014A195B09DA011296D3
:10185000159780F06282738251834083D9016D9322
:101860007C93E114F10471F0D7011396FC93EE938D
:10187000129778CF22968C0F9D1FF9019183808358
:10188000F301EFCFF093AF01E093AE016BCF4816B9
:10189000590608F42C017D01D3019ACFCB0132DE29
:1018A0007C01009739F0AE01B80117D0C801C6DE3F
:1018B000870158CF10E000E055CFFB01DC01059017
:1018C0000D920020E1F70895FC0105900020E9F752
:1018D000809590958E0F9F1F0895FB01DC0102C03B
:1018E00001900D9241505040D8F70895FB01DC0162
:1018F00001900D920020E1F70895FB0151915523CD
:10190000A9F0BF01DC014D9145174111E1F759F4F0
:10191000CD010190002049F04D9140154111C9F3CE
:10192000FB014111EFCF81E090E001970895E1992B
:10193000FECF9FBB8EBBE09A99278DB30895262FCB
:10194000E199FECF9FBB8EBB2DBB0FB6F894E29AF8
:10195000E19A0FBE019608952F923F924F925F92A7
:101960006F927F928F929F92AF92BF92CF92DF92AF
:10197000EF92FF920F931F93CF93DF93CDB7DEB714
:10198000CA1BDB0B0FB6F894DEBF0FBECDBF0994A8
:101990002A88398848885F846E847D848C849B84FF
:1019A000AA84B984C884DF80EE80FD800C811B810D
:1019B000AA81B981CE0FD11D0FB6F894DEBF0FBE3C
:1019C000CDBFED01089510E0CBE4D0E003C0FE01EF
:0E19D00093DD2196CC34D107D1F7F894FFCFE8
:1019DE000000B00180000101EA04000000000000D8
:1019EE003B037B08B0031A03980397030000000023
:0E19FE004F077B08D506EF06E1063007000014
:00000001FF
